:03000000020800F3
:0C080000787FE4F6D8FD758120020847DF
:100AFA000A083F065B4F666D7D077F6FC101C10023
:100A8D0075F00A842408F8E6F5807F327E007D003B
:020A9D007C00DB
:100A9F008F1B8E1A8D198C18781874FF120AB7ECE9
:060AAF004D4E4F70F322D2
:10090400D2A4D2A3D2A2E516120A8DC2A2E516750C
:10091400F00A84740825F0120A93D2A4C2A3D2A2C6
:1009240075805C120A97D2A4C2A3C2A2E517120A68
:100934008DC2A4D2A3D2A2E51775F00A8474082547
:10094400F0120A93C2A275805C120A97C2A4C2A3D1
:10095400D2A2E515120A8DC2A2E51575F00A8474B7
:100964000825F0F8E6F5807F327E007D007C0002E9
:020974000A9FD8
:10088C00D2A4D2A3D2A2E514120A8DC2A2E5147589
:10089C00F00A84740825F0F8E6F5807F1E120A9998
:1008AC00D2A4C2A3D2A2758040120A97D2A4C2A32A
:1008BC00C2A2E513120A8DC2A4D2A3D2A2E513756B
:1008CC00F00A84740825F0120A93C2A275804012B3
:1008DC000A97C2A4C2A3D2A2E512120A8DC2A2E543
:1008EC001275F00A84740825F0F8E6F5807F327EE4
:0808FC00007D007C00020A9F50
:1009C000D2B1751B01751C0A751D187B0BE4FDFF68
:1009D000120976120B0B1209FC20B1117F05120AC5
:1009E0009920B10B200108D201B2008002C201207F
:0C09F000000512090480DF12088C80DA78
:030AE800120A33BC
:0F0AEB00EFC4540F75F00AA4FEEF540F2EFF2234
:100AD500EF75F00A84C454F0FEEF75F00A84E5F072
:030AE5004EFF229F
:050B0B00C2B5C2B622D4
:100A6400D2B5E4FEEF1392B4D2B6C2B6EFC313FF0D
:100A74000EBE08F0E4FEED1392B4D2B6C2B6EDC3D6
:080A840013FD0EBE08F0C2B51F
:010A8C002247
:100A3300E4FED2B5430701FDEF1392B4D2B6C2B6BA
:100A4300EFC313FF0DBD08F0E4FDEEC313FE30B496
:100A530003430680D2B6C2B60DBD08EEC2B5AF06DB
:010A63002270
:10097600AC03AB05120AD5AD077F80120A64AF033C
:10098600120AD5AD077F82120A64AF04120AD5ADEA
:10099600077F84120A64AF1B120AD5AD077F861241
:1009A6000A64AF1C120AD5AD077F88120A64AF1D10
:0A09B600120AD5AD077F8C020A6417
:1009FC007F81120AE88F157F83120AE88F177F8593
:100A0C00120A33120AEB8F167F87120A33120AEB83
:100A1C008F127F89120A33120AEB8F137F8D120A01
:070A2C0033120AEB8F1422C4
:10080C000209C0E493A3F8E493A34003F68001F239
:10081C0008DFF48029E493A3F85407240CC8C333ED
:10082C00C4540F4420C8834004F456800146F6DFBC
:10083C00E4800B0102040810204080900AFAE47E48
:10084C00019360BCA3FF543F30E509541FFEE493B1
:10085C00A360010ECF54C025E060A840B8E493A378
:10086C00FAE493A3F8E493A3C8C582C8CAC583CAA3
:10087C00F0A3C8C582C8CAC583CADFE9DEE780BE5B
:010B0A0000EA
:100AB5007401FF3395E0FEFDFC080808E6CF2FF62C
:100AC50018E6CE3EF618E6CD3DF618E6CC3CF62205
:00000001FF
